:020000040800F2
:10000000C8150020C9000008E14100084D3900086A
:1000100000000000000000000000000000000000E0
:100020000000000000000000000000003D62000829
:100030000000000000000000F55500083F620008C5
:10004000DB00000800000000DB000008DB00000807
:10005000DB000008DB000008DB000008DB00000814
:1000600000000000DB000008DB000008DB000008E7
:10007000290C0008DB000008DB000008000000007D
:10008000DB000008DB00000800000000DB000008C7
:10009000DB000008DB000008DB000008DB000008D4
:1000A000DB000008DB000008DB000008E96B00084B
:1000B000F96B00080348854600F078FD00480047CA
:1000C00079970008C8150020044880470448004775
:1000D000FEE7FEE7FEE7FEE7FEE7FEE7CD6200088B
:1000E000B500000830B50B4601460020202201244F
:1000F00009E00D46D5409D4205D31D469540491B5C
:100100002546954040191546521E002DF1DC30BDA4
:1001100070B500242546002801DA01244042002958
:1001200001DA01254942FFF7DDFFAC4200D0404231
:10013000002C00D0494270BD10B5202A04DB0846CF
:10014000203AD040002110BD0B46D340D04020249F
:10015000A21A91400843194610BD03460B439B0762
:1001600003D009E008C9121F08C0042AFAD203E02C
:100170000B780370401C491C521EF9D27047421C78
:100180000178401C0029FBD1801A70470321001D13
:10019000401E037812021A43491EF9D510467047D3
:1001A000034603220870000A491C521EFAD518465D
:1001B0007047F8B502464A40D40F42004B0052083F
:1001C0005B089A4202D20246084611464A0023D0F2
:1001D000C30D4A00DDB2120EAD1A202D35DA4902E8
:1001E0000126490AF6058A19002C00D05242202126
:1001F0004F1B1146B9402A411018C20D9A4221D016
:10020000002C17D0012D08DCDA05801AD20F8019D6
:10021000D207DBB200F0C1FBF8BDDA05801A01237A
:1002200040001B06C01880185A428018CA0F10439D
:10023000490007E04908C2071143DA05801A80190E
:100240004008801800F0A1FBF8BD61000122511A9E
:10025000001BF7E70122D2075140AAE70122D2078B
:100260005040A6E7024670B54A40D30FDB07400076
:100270002DD04A002AD0010E140E000212020919D4
:10028000400A520A8418E50104465443000A120A3F
:100290002E045043A4194219200CC543AA18120C6D
:1002A0000125AD03521C521912047F39240400D0D9
:1002B000521C104301D44000491EC2B20C06C009B2
:1002C0002018401C4008802A02D003E0002070BDA6
:1002D00040084000002900DA0020184370BD70B5C6
:1002E00002464A40D50F40004A00ED074008520838
:1002F000002814D0002A12D0C40DD30D41020120D1
:10030000C0055202490A520AE41A091812187D342B
:10031000914201D3641C00E04900002C01DA002066
:1003200070BD0023914201D3891A0343400849005C
:100330000028F7D100290AD0914202D10121C90732
:1003400005E0914201D2012101E00121C943E0050C
:10035000C018401900F019FB70BD420005D04200E2
:10036000120E52428A4201DB00207047C90508186C
:1003700070470000F0B507460846584087B0C00FE8
:10038000049048000E46590040084908BC1A8841AC
:1003900005D2384631461E4617460B4602465800DF
:1003A000400810434CD0300D039040055900400DDB
:1003B000490D0590401A0290402872DA1803012175
:1003C000000B09050843019004980092002805D00D
:1003D00001995242002088410092019002984021E8
:1003E0000A1A0199009800F0ADFA05460C466B46D2
:1003F00007CB00F0B7FAC0197141039A0E0D002324
:10040000D71756401A467A40164344D0049A002A19
:100410002DD0029A012A039A15DC1205C01A9141C7
:1004200001263605001C7141D20F059ED2070093AC
:10043000019202962A46234600F0F5FA07B0F0BD75
:1004400038463146FAE71605224A0F46B218C01A56
:10045000B74101210905001C4F4100187F41114699
:1004600018187941E20F10436D19644113E0E20757
:100470006D0815436408C2071443039A0126120548
:10048000C01A91413605001C7141CE074008304327
:100490004908C01851412A46234600F0B7FACDE773
:1004A000FFE7049801224000C117121A00238B4174
:1004B00004983146C417381AA141EEE730B401243C
:1004C000E407634030BC55E730B40124E4076140E1
:1004D00030BC4FE70000E0FFF0B51FB488B00B99C7
:1004E0000998002448400999C00F4900490809911A
:1004F000C0070B990090490049080B910999089889
:10050000A64608431CD00B990A98084318D00998AE
:1005100001244000420D4800410D099824050003C4
:10052000000B204309900B980003000B20430B9015
:1005300050181C494018002201901446104605E04E
:10054000002001460DB0F0BD032801DA034600E0AB
:1005500003239C46C11A0AAE0AE05F0008ADED5BBA
:100560004F00F75B7D430027AA187C41491C5B1EA6
:100570006145F2DD410004AB5A522104120C0A43DA
:10058000240C401C0828DFDB01980290009970467B
:1005900001910090059B049A0799069800F043FA90
:1005A000D0E700000DFCFFFFF0B50C465C4085B0C5
:1005B000E40FE40703944C000026640859009446B5
:1005C000490802460296224321D062460A431ED0C1
:1005D0006200570D4A000E032303550D0124024605
:1005E0002C492405781B1B0B360B4018234326434C
:1005F000614600901C46501AB44103D30098401C39
:10060000009002E0921800985B41002803DA002075
:10061000014605B0F0BD00200121090507468646C8
:1006200011E064461D46141BB54106D36546521BB6
:10063000B341744607430C43A646CD07400849081A
:10064000284392185B4105460D43EAD110461843F2
:1006500013D06046194650407140084306D06046AA
:10066000101AB34106D20122002306E00022012322
:10067000DB0702E00122D2435310009874460105C3
:10068000381C6141029C039D0019694100F0BEF9CC
:10069000BFE70000FD03000070B54B005B0803439B
:1006A0000BD04B005C0D002633466542B341D41796
:1006B000AD1AA34102DB0020014670BD12053018BF
:1006C000514170BDC217C10F504010B54018CA0744
:1006D0009623002100F061F910BD10B50022962389
:1006E000114600F05AF910BD0EB5C217C10F5040A7
:1006F000CA0740180021054B0293019200910A4657
:100700000B4600F090F903B000BD00003304000078
:100710000EB505490291002100910A460B46019150
:1007200000F081F903B000BD33040000C20F4100A6
:1007300040020123400ADB05D207090EC0187F29B9
:1007400001DA00207047962903DC9623591AC84025
:1007500001E096398840002AF4D0404270474100B9
:1007600040020122400AD205090E80187F2901DAD1
:1007700000207047962903DC9622511AC840704722
:10078000963988407047000070B5CD0F4A000903C4
:100790000123090B1B0519430B4BED070024520DD8
:1007A0009A4201DA002070BD074B34339A4203DCD1
:1007B0009A1AFFF7C1FC02E00449511888402C4303
:1007C000F1D0404270BD0000FF030000CDFBFFFFF1
:1007D0004A0009030123090B1B051943094B10B5F6
:1007E000520D9A4201DA002010BD064B34339A4272
:1007F00003DC9A1AFFF7A0FC10BD0349511888408A
:1008000010BD0000FF030000CDFBFFFFC20FD207A9
:10081000400040080BD0C10D0723DB01C91840027E
:100820000905400A1143C2084007114370470020E0
:100830000146704710B5002904DB0124E40740425B
:100840008C412146002B04DB1C460123DB0752426E
:10085000A3418B4200D1824210BD000010B5002997
:1008600004DB0124E40740428C412146002B04DBD9
:100870001C460123DB075242A341994200D190421A
:1008800010BD0000CB0FDB07490010B54908024638
:100890000A4307D00A0D07240903E401090B121BC0
:1008A000002A01DC002010BDC900440F0C43C10028
:1008B000E018D205801800F068F810BD0122D207B8
:1008C000002800DB101A002900DB511A8142704712
:1008D0000122D207002800DB101A002900DB511A80
:1008E00088427047F0B51FB40646002082B0054626
:1008F0004024019100901BE0019922460F463046AA
:10090000FFF71AFC049A059B801A994110D31046F0
:100910001946224600F016F8361A8F4101972246F2
:1009200001200021009F00F00DF838184D41009083
:100930002046641E0028DFDC019B009829463246D1
:1009400007B0F0BD10B5202A04DB0146203A9140E3
:10095000002010BD914020239C1A0346E340194318
:10096000904010BD10B5202A06DBCB170846203A70
:100970001041C1170B4306E00B461341D040202421
:10098000A21A91400843194610BD002904DA401C00
:10099000490001D140084000704770B40024050CA4
:1009A00005D11024000402D1002921D01124050E04
:1009B00001D100020834050F01D10001241D850F6B
:1009C00001D18000A41C002801DB4000641C002928
:1009D00008D020252E1B0D46F540A14000D0012156
:1009E0002943084301061B1B000ADB1D02D500201A
:1009F00070BC7047DB05181880180029F8DA401C15
:100A00004900F5D170BC40084000704710B5002B7C
:100A100008DA0024401C614192185B411A4301D15D
:100A20004008400010BDF0B51FB482B005460C0070
:100A300003D0084607F094FE02E007F091FE203054
:100A40000246009021462846FFF77CFF049B059A4A
:100A500004460F4618431143084314D01846104368
:100A60001BD0009840210A1A18460599FFF764FB2D
:100A700005460E46009A05990498FFF763FF084360
:100A800005D0012004E02046394607B0F0BD002023
:100A9000C11705430E432C43374300990E98630555
:100AA000401A7905E40A00220C43FD0A0A3002D5F7
:100AB00000200146E9E70105101969410C9C0D9DD4
:100AC00000196941FFF7A2FFDFE7FEB500231A46D0
:100AD0001B1A8A4103DB0020014603B0F0BD4A0027
:100AE0000D0301212D0B0905520D0D43D10702D134
:100AF00000186D41521E5110FF31FF3101310027A6
:100B000004463E46384600970191024601210020E6
:100B10000905FFF711FBC3197141F81832468446E5
:100B20008E464A4161462846611A904104D3604688
:100B3000241A954176461F46241900986D41401CA1
:100B400000903428E1DDF91930467041091BA841B5
:100B500003D20022D243134601E00022134601983B
:100B60000105381C7141FFF751FFB6E74A00090340
:100B70000123090B1B0519430A4B10B5520D9A426C
:100B800002DA0020014610BD064B34339A4203DCE2
:100B90009A1AFFF7D1FA10BD034BD218FFF7D2FE15
:100BA00010BD0000FF030000CDFBFFFF064C012538
:100BB000064E05E0E36807CC2B430C3C9847103405
:100BC000B442F7D3FFF77AFA64C9000884C9000871
:100BD00070B58C180578401C6B075B0F01D103784A
:100BE000401C2A1106D10278401C03E006780E70E2
:100BF000401C491C5B1EF9D12B0705D40023521E53
:100C00000DD40B70491CFAE70378401CCB1A921CD8
:100C100003E01D780D70491C5B1C521EF9D5A142E2
:100C2000D8D3002070BD000010B50D4801F0EFF8DA
:100C30000C4C2078092812D8094801F0E5F82178F1
:100C4000094B4A009852491CC8B22070092806D3A3
:100C500000F0B4F80548042201689143016010BD1A
:100C6000301000201A000020740500203000002001
:100C700070B5044600688168490720D58168102650
:100C80004907002905DA8168890702D48168314360
:100C9000816001F047FB05460DE001F043FB401B7E
:100CA000022808D9606C30436064A06C01210843BD
:100CB000A064084670BD206880684007EDD400201D
:100CC00070BDF8B50446006881688907890F01295D
:100CD00028D10168C90702D1C168090422D58168F9
:100CE000052211401025012601290FD18168022219
:100CF0001143816021680320086001F013FB07465F
:100D00000CE001F00FFBC01B022807D9606C2843E0
:100D10006064A06C3043A0640120F8BD2068806846
:100D2000C007EED10020F8BDF8B5044600200090C1
:100D3000206881688907890F012905D10168C907E1
:100D40002CD1C168090429D48168154A10261140A4
:100D50000125002915D18168294381601248114974
:100D60000068FFF7BFF900E0401E00900028FBD1AB
:100D700001F0D8FA07460CE001F0D4FAC01B0228B3
:100D800007D9606C30436064A06C2843A0640120E4
:100D9000F8BD20680068C043C007EDD10020F8BD51
:100DA0001700008040420F001403002010B50248D5
:100DB00001F082F910BD00003010002010B502488B
:100DC00001F0B8F910BD000030100020CA08805CA6
:100DD0004A07520F01219140084000D0012070477E
:100DE000F8B5EB48EA4C007800250006083C0028DE
:100DF0002BDAE84AE84F0020C100431899188D709B
:100E0000CD700D712E0A4E718D712E0ACE710D723C
:100E1000D9198D70CD700D712B0A4B712B0A8D7104
:100E2000401CCB71C0B20D720A28E5D365702570E5
:100E3000D748E570257108220021083002F0E0FE55
:100E4000D348802201689143016008F061FB0C22C5
:100E50000221D24808F0ACF9D14E0120B074112221
:100E60000321304608F0A4F9CE488179427908027E
:100E70001043152804D914220321CB4808F098F90F
:100E8000CA48C078022819D0C4488178427808023C
:100E9000C24910430A79CB781102194388420DD315
:100EA000BB480D210830FFF791FF002806D1B84854
:100EB0000E210830FFF78AFF00281FD0B448001D1C
:100EC000007880071AD50D220321B94808F070F97F
:100ED000AF480D210830FFF779FF012809D1B44848
:100EE0000179C27808021043B1490A304870000AFB
:100EF00088700E220221AE4808F05AF9A448112148
:100F00000830FFF763FF0227012806D0B7741022CC
:100F10000221A34808F04CF906E09D481021083052
:100F2000FFF754FF012832D09E4BA24E98780A2832
:100F30007ED00B282AD00D28FCD01028FAD0A1781A
:100F4000491CC9B2A1700D292CD230681C2238432B
:100F500030600421984808F02BF91A2204219748A0
:100F600008F026F91D220421954808F021F91622DF
:100F70000421944808F01CF906220421924808F044
:100F800017F907220421914808F012F992E08448E9
:100F90000179C278080210438149801C4870000A18
:100FA0008870B3E73168B9431F46316009283CD0E7
:100FB00002220121864808F069F8032201218448B1
:100FC00008F0F6F804220121824808F05FF80522B3
:100FD0000121804808F0ECF8202201217E4808F029
:100FE00055F8212201217C4808F0E2F8B87807285A
:100FF0001BD0082819D0092817D0062815D010288A
:1010000013D00A220121754808F040F80B22012173
:10101000724808F0CDF808220121714808F036F82E
:10102000092201216E4808F0C3F86E48817A00E079
:1010300037E0427A0902401C114321D0417B027BF8
:10104000080210431CD0B878072819D0082817D0F8
:10105000092815D0102813D018220121624808F061
:1010600015F819220121604808F0A2F81E2201217A
:101070005E4808F00BF81F2201215C4808F098F840
:10108000152201215A4808F001F80122114658485A
:1010900008F08EF80020401CC0B20728FBD3A570D2
:1010A00008E0A078401CC0B2A0700D28306829D29A
:1010B000384330603648001D0078000748D4E27895
:1010C0004C484D49002A20D02378934200D3257004
:1010D000007880070AD50878400607D42078C10038
:1010E00041182C480818092104F085FA2078C1001D
:1010F000411828480818092104F0BAFA2078401C41
:10110000207025E0B8433060C9E72279002A1FD05B
:1011100033789B071CD46378934200D365700078C2
:1011200080070AD50878400607D46078C1004118C6
:1011300019480818092104F05EFA6078C1004118C6
:1011400015480818092104F093FA6078401C607073
:1011500060780A2802D82079002800D165702078AC
:101160000A2802D8E078002800D12570E0780A2803
:1011700004D9E570002121A000F06CF820790A283C
:1011800000D92571C8210B2005F036FBF8BD000001
:101190007C000020CA0D0020240E0020980C0020A6
:1011A000C00C00203C0B0020D40C0020870C002039
:1011B000AC0C0020340000207902002080020020C6
:1011C0005D02002072020020640200206B020020F9
:1011D0008F0B0020A60B0020BD0B0020D40B00209D
:1011E000EB0B0020620C0020190C0020020C0020E8
:1011F000780B002004000020F4000020416C6D43B7
:10120000747220636C65617264206174204D475272
:101210000000000030B514460D460346FFF7D6FD2A
:10122000A0420CD0E8086A07520F012191401A5CD5
:10123000C9B2002C01D00A4300E08A431A5430BDE1
:1012400010B508220021024802F0DAFC10BD0000AF
:101250008400002070B50546012908D0002905D179
:1012600002F0B0FC0146284604F0E8F970BD074CD6
:101270002178A01C02F0B0FC22782946A01C02F0C4
:10128000B2FC2178204604F0F3F970BDE80C002090
:10129000F0B59FB0044602F095FC024621460AA82C
:1012A00002F0A1FCA07808270425030007F06FFADC
:1012B00012180A186BB3F818F72C341818181818E5
:1012C0000C25F6180C2294E20422611CF94802F065
:1012D0008AFCF84846788078012802D0022804D099
:1012E00097E2F54802E0017093E2F44801780029A2
:1012F00001D00021F7E70121F5E71C22611CF0482D
:1013000002F071FC102684E2ED481122611C7C3849
:1013100002F069FC08267CE2E6480822611C653080
:1013200002F061FCE34906206531085E0D2804D017
:1013300012280BD00E2812D01CE0E24802220168CD
:101340002943114301600021DFA011E0DD490222A1
:1013500008683843104308600021DFA008E0D9493D
:1013600002220868B843A843904308600021DFA028
:10137000FFF770FFE0480926016829430160DF4854
:101380000B21817045E2CF48022102688A43026046
:10139000C8480822611C653002F025FCC5480422BB
:1013A0006530825E20210A2A02D00B2A27D030E243
:1013B0000622825E012A04D0022A0CD0032A14D00D
:1013C00027E2CF4A102310683843984388431060BF
:1013D0000021CCA01CE0CA4A102310681843B8436F
:1013E000884310600021CBA012E0C54A102310688A
:1013F0009843B843084310600021CBA008E0C04ADE
:1014000010231068B8439843884310600021CBA094
:10141000FFF720FFFDE1B948E1788078884207D0E6
:10142000A74A0123D33A9070B54802681A4302E0F4
:10143000B34802682A430260B04A9E48521C401ECC
:10144000C14E09920B0007F0A2F911280A121C2CB8
:10145000454F597063FD282894CD28A528000278AF
:10146000611CBA4802F0BFFB1E22B84959E002785D
:10147000B648611C1E3002F0B6FBB4491E221E3174
:1014800008E00278B148611C783002F0ACFBAF494B
:101490001E2278319948FEF760FEE4E0B1E1AEE14A
:1014A000A6E102789548611C963802F09CFB9349AE
:1014B0001E2296399148FEF750FEA5480268D107D2
:1014C00006D0A4490B68AB430B605108490001608A
:1014D0003570C8E002789D48611C5A3002F083FBE9
:1014E0009A491E225A31D5E702788448611C78381F
:1014F00002F079FB81491E22783912E002787F4898
:10150000611C5A3802F06FFB7C491E225A3908E0F0
:1015100002787A48611C3C3802F065FB77491E224C
:101520003C397648FEF719FED2E702788748611CFD
:101530003C3002F058FB85491E223C316F48FEF7D3
:101540000CFE6E483570C179447FC37D027905AFCA
:101550001EC7817B047C437C027A01AF1EC7417B9E
:101560000091037B0998417900790A0202437AA12C
:101570005DE0002184A0FFF76DFE60480D218170C1
:1015800084480122016811430160714801683943B0
:10159000016068E059496420487710207E4A8870CD
:1015A00010706B4802683A4302607C4835700268EC
:1015B0002A430260099815220271002242711046E6
:1015C000774A1070774A1070022008714620C8715F
:1015D000764A754810600C2008730520087714209F
:1015E000487540E002784548611C1E3002F0FBFA65
:1015F00042491E221E31881AFEF7AFFD3F48357062
:10160000C179447FC37D027905AF1EC7817B047C0D
:10161000437C027A01AF1EC7417B0091037B09988E
:10162000417900790A02024300E00BE060A16B48B7
:1016300007F082F8694802F0C5FA0146674803F0EE
:10164000FDFF10E002782D48611C1E3802F0CBFA35
:101650002A491E221E398818FEF77FFD17490020EF
:1016600008701549087026480078C00719D023482B
:101670008178C800411A0F486D300B181049DB1FE4
:10168000D3398978CA00511A0A1855A15348D21F74
:1016900007F052F8514802F095FA01464F4803F01E
:1016A000CDFF2C4880220168114301601348467821
:1016B000AFE000002902002051010020520100206B
:1016C000030D0020040000200A5446545F63616C3F
:1016D00069625F6F6E0000000A4C6162566965774F
:1016E0005F63616C69625F6F6E0000000A43616C4A
:1016F0006962206F66660000340000203C0B002009
:10170000080100200A20534E53525F524157206F68
:101710006E0000000A20494E4C45545F505245531C
:101720005F524157206F6E000A2043555252454E7A
:10173000545F44415441206F6E0000000A20416C08
:101740006C204F66660000003F010020100A002058
:10175000800000207C0000200A534554543A205059
:1017600053562C2025642C25642C25642C25642CB0
:1017700025642C25642C25642C25642C25642C25BB
:10178000642C2564000000000A50656570204361E8
:101790006C696200380000200C0100203C00002031
:1017A000900100206D00002000008C4220010020EC
:1017B0000A565345543A42692C25642C25642C253D
:1017C000642C25642C25642C25642C25642C25642C
:1017D0002C25642C25642C2564000000A003002027
:1017E0004C4D2025732C434D2025730A000000002A
:1017F0000622611C684602F0F6F9684657E707269C
:1018000007E000F095F901210022C903024800F029
:1018100082FD30461FB0F0BD00040048F0B5BD4960
:1018200011200870082048700120002308714B71B6
:1018300045228A71B84A1D211170D0709071022121
:10184000B54C5171162215342270E070A07103223C
:10185000627106250E3C2570E270A071607107254B
:10186000E41D2570E270A07160710E34E070A0710B
:101870006071E41DE070A0716071E41DE070A07102
:101880006071A44C14252534E5700025257125468A
:101890006B711E0AAE71A8740A252646F574E571AF
:1018A00000252572A27314340D0AE17025710726F4
:1018B00025466E710026AE71E071050A2572A0748E
:1018C000E1740525A5736573AF26B600283CE67064
:1018D000360A267163711E0AA671A174E074A273A0
:1018E0003C34E3701E0A2671264673711F0AB771D5
:1018F000E071060A2672A174E174A273FF3C04260B
:10190000463CE6741E26A6700026E6702071060A84
:101910006671A3711E0AE671282626720026667279
:10192000A174264675752F0AB7752746627304267B
:101930001737FE7446267E803E46B580F3806426C7
:101940003E813E46B174142777750027B7757273D0
:10195000B273274604262E37FE745026BE7000262A
:10196000FE703E4635712F0A7771B3711F0AF77109
:10197000274628262E373E7200267E723E46B174D8
:1019800075752F0AB7757273B2731736F2742746DE
:10199000624E45377E806426BE802326FE807D26EB
:1019A00036013E813E46FF27B174F53777753F0A11
:1019B000B7757273274608264537BE7326465C36D0
:1019C000F274564E1737BE70360AFE7064263E71AA
:1019D00000267E712326BE710026FE717D2636010B
:1019E0003E72360A7E723E46FF27B174F537777530
:1019F0003F0AB7757273B2731736F2742746484EB2
:101A000073377E803E46B380F380464E3E813E462D
:101A1000FF27B174F53777753F0AB7757273A273F4
:101A20008A34E2743E4EA670360AE67023711E0AAE
:101A30006671A3711E0AE671364E3A4C6E3E3472E0
:101A4000240A74723446FF26A174F5366675360A88
:101A5000A6756273A273304C2A3CE170A07161716B
:101A6000E41DE170A0716171E41DE170A07161710C
:101A7000E41DE170A0716171E41DE170A0716171FC
:101A8000E41DE170A07161712748274CC274632086
:101A900060801520A080E080234E64243481344689
:101AA000A1742146487500208875084642731A497A
:101AB00082730420343908701C491E2008701649AE
:101AC0000620303908700846457021462520EA3145
:101AD00008700B2048700920093908700A204870E6
:101AE0000D4908203131087009204870094920202B
:101AF000993108701220487007491E203539087046
:101B000004491920613108700E2048700846B83821
:101B10008370F0BD870C00205D020020DC05000012
:101B2000A861000060EA0000780B00200803002094
:101B300010B5002004F0CAFD002004F0EFFD0020E5
:101B400004F012FE10BD000010B5064900204870D8
:101B50000549092004F050FE012217210348FFF730
:101B600059FB10BDF8000020DC05000084000020B7
:101B700010B51348002284781249230006F007FEAE
:101B800009061D1D1D1D0C0C0C0D0C0002710E48CC
:101B9000CA7002700D48027010BD0D4B8C781B5D31
:101BA00003714C790979002C04D08B4204D9591A5D
:101BB000017102E05918FBE7027108F029FF10BD1E
:101BC0003C0B0020F800002094010020950100202B
:101BD000A4C80008F8B5164D164C2878800702D422
:101BE0002078401C207014480226807800270D2899
:101BF00001D0677000E066706078002802D001288C
:101C000006D104E000F01AF80120607000E067706F
:101C100020780A28286803D330432860277001E021
:101C2000B0432860E1210901092004F0E5FDF8BD79
:101C300080000020F80000203C0B0020F8B50C21AB
:101C40002748FFF7C3F8294C264D21466F1C093160
:101C5000254EED1C0091012809D0787839780002D2
:101C6000084369782A780902114388420ED2306805
:101C70004021084330600220E07008221849009893
:101C800001F0B1FF2178194803F0F2FC0C2114484F
:101C9000FFF79CF8002809D07878397800020843CB
:101CA00069782A780902114388420ED90120E07030
:101CB00008220B49009801F096FF21780B4803F0A9
:101CC000D7FC3168402081433160A078002805D1DD
:101CD00001210022C903064800F01DFBF8BD0000E9
:101CE00084000020980C00207C000020870C00203D
:101CF00000040048F8B500250446403400952278D9
:101D0000012A39D00122227003689E68760767D4C1
:101D1000384F4E68BE424DD09E6A0F78BA40164387
:101D20009E620123826B1B079A421FD0012A1DD09D
:101D3000022A1BD0032A19D0042A17D0052A15D04D
:101D4000062A13D0072A11D002688B6856697607D5
:101D5000760FB3420AD05369DB08DB005361006899
:101D600042690B7A5B075B0F1A4342610A68102ACB
:101D700004D0112A02D038E00220F8BD1E48836842
:101D8000102A07D0012292051343836008681028A7
:101D900003D02AE00122D205F6E719481749006866
:101DA000FEF7A0F90A21484300E0401E00900028F9
:101DB000FBD11AE0986A0E78B240904398620968A5
:101DC000102901D0112910D10B488268102904D0A4
:101DD000012189058A43826007E00121C905F9E7ED
:101DE000416C2022114341640125002020702846C7
:101DF000F8BD0000011000000027014040420F0024
:101E000014030020704770470068006C704770B57D
:101E1000044600680168490702D54168490705D4AE
:101E20000168090730D5416809072DD5616CC906DD
:101E300004D4616C0122520211436164C1680C2513
:101E40000905890F00291AD1216A002917D10168D3
:101E5000090714D581684A070121002A08DB426876
:101E6000AA434260606C0A0290430843606406E043
:101E7000606C202210436064A06C0843A06420467C
:101E8000FFF7C0FF206805602068016809060DD5CE
:101E9000406800060AD5606C0121090408436064AB
:101EA000204600F0D7F8216880200860206801688B
:101EB000C90613D54168C90610D5616B10250129E3
:101EC00002D0C168C90707D0A16C02221143A164E6
:101ED00005602046FFF797FF2068056070BD000091
:101EE000F8B500250446002803D0606C002802D015
:101EF00008E00120F8BD0020A064402108552046DC
:101F000000F0AAF8606C1022C006002870DB206880
:101F1000816849076CD4616C13019943022319430A
:101F2000616481688907890F012905D10168C907A2
:101F30000FD1C16809040CD4C16818239943A36860
:101F40001943C160206801696368890089081943E1
:101F500001612068C1683D4B1940C160A069E16919
:101F60008003C9030843216A4B031843636B012BA9
:101F700002D001231B0300E000231843E368184349
:101F80002369022B09D000231843236B666A5B0088
:101F900018430123012E02D00AE00423F4E70029AC
:101FA00027D0616C202631436164A16C1943A16480
:101FB000A16A0E46FF3EC23E02D0E66A31430843A4
:101FC0002168CE680643CE600126A16B3607B14278
:101FD00013D0012911D002290FD003290DD00429D3
:101FE0000BD0052909D0062907D0072905D010E014
:101FF00028E0012109040843DAE721684E69F60860
:10200000F6004E6121684E69278F7F077F0F3E43A0
:102010004E612168C9680E4E3140814207D10020CF
:10202000A064606C80088000401C606408E0606C04
:102030000221884310436064A06C1843A06401250A
:102040002846F8BD606C10436064F8E71902FEFF93
:10205000E7FF3F837047000030B50068134987B041
:10206000884220D11248826941150A438261806901
:10207000032408400590FF2000256A4631C209204C
:102080006946C00600F09EF802206A4631C26946E1
:10209000084800F097F8002211460C2000F0B8FB29
:1020A0000C2000F0ABFB07B030BD00000024014065
:1020B000001002400004004870B50446216800206A
:1020C0008968490732D425464035297801292DD021
:1020D00001212970E169012904D02046FEF724FE80
:1020E000002818D1616C124A1140FF2201321143BD
:1020F00061640021A164297022681C211160636958
:102100000422082B08D023685D680D435D602168B8
:102110008B6813438B6070BD21684B6893434B60A1
:1021200021684B6818252B434B60F0E7022070BDF7
:10213000FEF1FFFF70B505460446403528780128BA
:1021400007D001262E702046FEF792FD002802D00F
:1021500011E0022070BD206841681C22914341605B
:102160002046FEF7AEFD002805D1616CFF2201324A
:102170009143314361640021297070BD70B5002422
:10218000014620314A78022A03D0042181630124C8
:1021900016E0026813680E25AB43136002681368EB
:1021A0005B085B0013600122056C1346AB40C56BF6
:1021B0006B604A7000220A70416B002900D088478A
:1021C000204670BDF8B500238DE001249C40A44654
:1021D00022407DD04C68022C01D0122C0CD1DC089E
:1021E000A40027183C6A5D07ED0E0F26AE40B443ED
:1021F0000E69AE4026433E6205685E000324B4408B
:102200000F79A543BF07BF0FB7402F4307604D6845
:10221000012D05D0022D03D0112D01D0122D0ED18C
:102220008568CF68A543B7402F43876047686546F8
:10223000AF430D79ED06ED0F9D403D434560C56808
:10224000A5438C68B4402C43C4604C68E40049D575
:10225000284CA56901263543A561A4699D08344031
:102260000094254CAD002F19BC689D072E0F0F253B
:10227000B540AC430925ED06A84201D100250FE089
:102280001E4DA84201D101250AE01D4DA84201D1F1
:10229000022505E01B4DA84201D1032500E00525DC
:1022A000B5402543BD60184C25684E689543F6033C
:1022B00000D51543256065684E689543B60300D583
:1022C00015436560A5684E689543F60202D500E0A7
:1022D00008E01543A560E5684E689543B60200D551
:1022E0001543E5605B1C0A681446DC4000D06CE7CF
:1022F000F8BD00000010024000000140000400484A
:1023000000080048000C0048000401400069084033
:1023100000D001207047002A01D08161704781629E
:102320007047000001480068704700001803002053
:1023300070B5024640325378202B1CD11378012B04
:1023400019D00123137024245470046825689D4318
:102350002560046825681E03B54325600468256868
:102360000D4325600068016819430160202050700A
:102370000020107070BD022070BD70B50246403262
:102380005378202B1BD11378012B18D00124147003
:102390002423537003681D68A5431D6005682B68DE
:1023A0000F263602B3430902194329600068016809
:1023B00021430160202050700020107070BD022069
:1023C00070BD000070B5040006D025464035687821
:1023D0000026002802D005E0012070BD2E702046A6
:1023E00000F0A0F9242068702068016849084900BD
:1023F00001600F216068090688432168086121682F
:102400008A680120C00382438A60E1680129A168CB
:1024100008D021229202114322689160E1680229CA
:1024200002D005E00143F7E701212268C9025160AB
:1024300021684A680F4B1A434A602168CA68824380
:10244000CA60616920690843A169090208432168DB
:10245000C860216AE0690843216808602068016853
:102460000122114301606664202068702663AE700B
:10247000002070BD00800002FFB5054604464035CF
:10248000687883B0202873D10C98002871D00D98FB
:1024900000286ED0287801286AD001202870FFF724
:1024A00041FF0746012200901923D103204601F085
:1024B00015FB002876D1222068704020A8700026E5
:1024C00066640C9860620D98608566630E98009053
:1024D000019704A90EC9204601F084FA002804D00F
:1024E000606C2E70042860D05CE0618D0920800251
:1024F000FF2905D9FF22228501231B06009006E053
:10250000618D21850090208D0123C2B25B0620469B
:10251000049901F0D1FA00970022042120460E9B75
:1025200001F0DCFA00283DD12068416A606A421C53
:1025300062620170208D401E81B22185608D401E37
:102540006085002921D1608D00281ED000970022CF
:10255000802120460E9B01F0C1FA002822D1608D17
:10256000FF2807D9FF22228501231B06009608E0D9
:102570002AE01AE0608D20850096208D0123C2B2EA
:102580005B062046049901F097FA608D0028C2D1BD
:102590003A4620460E9901F0C5FA002807D0606C33
:1025A000042802D0032007B0F0BD0120FBE721681A
:1025B0002020C86121684A68044B1A404A6068704C
:1025C000AE702E700020EEE70220ECE700E800FE7F
:1025D000FFB5054604464035687883B0202876D19B
:1025E0000C98002874D00D98002871D02878012804
:1025F0006DD001202870FFF795FE0746012200905C
:102600001923D103204601F069FA002853D1212073
:1026100068704020A870002666640C9860620D986F
:10262000608566630E980090019704A90EC9204644
:1026300001F00DFA002804D0606C2E7004286AD0D6
:1026400039E0608DFF2805D9FF22228501231B0672
:10265000009606E0608D20850096208D0123C2B291
:102660005B062046049901F027FA3A4620460E9967
:1026700001F07FFA002803D0606C04284BD01AE0E8
:10268000606A411C6162216800788862608D401E2A
:102690006085208D401E0004000C208524D1608DB3
:1026A000002821D000970022802120460E9B01F0B7
:1026B00015FA002802D0032007B0F0BD608DFF2876
:1026C00007D9FF22228501231B06009608E024E09B
:1026D00021E0608D20850096208D0123C2B25B062B
:1026E0002046049901F0E8F9608D0028BDD13A46F2
:1026F00020460E9901F016FA0028BDD1206820214D
:10270000C16120684268064B1A4042606970AE7031
:102710002E700020D0E70120CEE70220CCE7000099
:1027200000E800FE00B500680E4987B0884216D167
:1027300003208002009012200121019003200291C9
:102740000491039069460848FFF73CFD0748C269B9
:10275000012189050A43C261C0690840059007B09C
:1027600000BD000000580040000400480010024076
:1027700002480168491C01607047000018030020EE
:1027800010B506480168102211430160002000F0D6
:1027900007F800F017F8002010BD000000200240EC
:1027A00010B5044600F042F97D21C900FDF79AFCFE
:1027B00000F096FD00222146501E00F029F800206E
:1027C00010BD000008B50C488169012211438161E8
:1027D00080691040002200901146501F00F018F848
:1027E00000221146901E00F013F800221146501EE0
:1027F00000F00EF808BD000000100240C106C90E2E
:1028000001208840014908607047000000E100E0B5
:1028100010B501F0E7FC10BDF8B505460068354C71
:10282000C00352D5E0690026C00007D4E169200446
:102830000143E161E1690140012600912E480168F0
:10284000C90510D40168821511430160FFF76AFDC4
:10285000074604E0FFF766FDC01B642824D826481D
:102860000068C005F6D5206A03273F02384020D013
:102870006968394081421CD0206A226AB84301212C
:1028800009040A432262226A8A4322622062C00744
:102890000FD0FFF747FD009008E0FFF743FD0099D8
:1028A000411A1648814201D90320F8BD206A8007E9
:1028B000F3D5206A6968B84308432062002E04D02B
:1028C000E169012000078143E1612878C00705D054
:1028D000206BA96880088000084320632878800660
:1028E00005D5206B10218843E96808432063002048
:1028F000F8BD000000100240007000408813000086
:10290000F8B5054644480E460068C007C00FB042FF
:102910000AD2414801684908490031430160006812
:10292000C007C00FB0425CD128783C4C800705D569
:102930006068F0218843A968084360602878C00770
:102940003FD06868012813D02168022813D0890776
:10295000002946DA61688908890001436160FFF750
:10296000E1FC6968074601290DD0022917D024E04F
:1029700021688903ECE78901EAE7FFF7D3FCC11B73
:102980002748814217D860680007800F0128F4D1DA
:1029900017E0FFF7C7FCC11B214881420BD86068D4
:1029A0000007800F0228F4D10BE0FFF7BBFCC11B2E
:1029B0001B48814201D90320F8BD60680007800FE1
:1029C000F3D115480168C907C90FB1420BD9016895
:1029D00049084900314301600068C007C00FB04298
:1029E00001D00120F8BD2878400706D5606807218E
:1029F00009028843E9680843606000F02DF86168C7
:102A0000084A0906090F515CC840074908600020C0
:102A1000FFF7C6FE0020F8BD002002400010024073
:102A200088130000B9C8000814030020014800689A
:102A300070470000140300200448054900684968F5
:102A4000044A4905490F515CC840704714030020EF
:102A500000100240C9C8000810B512A30FCB88B0FF
:102A60006C460FC413A30FCB0FC416494A680C2041
:102A7000134603401448042B0FD0082B0DD19302AA
:102A80001B0F6C46E45CC96A04AB0907090F595C6B
:102A9000D20304D5FDF726FB604308B010BD0B48F8
:102AA0006043FAE702030405060708090A0B0C0D48
:102AB0000E0F10100102030405060708090A0B0C8B
:102AC0000D0E0F100010024000127A0000093D00A8
:102AD000FEB504460078D04DC00747D068680007AF
:102AE000800F012807D068680007800F022809D1ED
:102AF0006868C00306D52868800337D56068002859
:102B00007ED033E0012062680004012A11D08100E8
:102B1000002A01D0052A10D02A6882432A6028683A
:102B2000884328606068002814D0FFF7FBFB064646
:102B30000CE0296801432960F4E72A680A432A6007
:102B4000F7E7FFF7EFFB801B64286FD82868800346
:102B5000F7D50BE0FFF7E6FB064604E0FFF7E2FBE4
:102B6000801B6428F1D828688003F7D420780126D8
:102B7000800700283BDA68680007800F07D0686884
:102B80000007800F022809D16868C00306D42868AE
:102B9000800715D5E068012832D111E0E0680028EF
:102BA000286815D030432860FFF7BCFB074604E0D7
:102BB000FFF7B8FBC01B0228C7D828688007F7D5E5
:102BC0002868F82188432169C900084328600EE07D
:102BD000400840002860FFF7A5FB074604E0FFF728
:102BE000A1FBC01B0228B0D828688007F7D4207842
:102BF000000724D5E0690028686A10D0304300E05F
:102C000008E16862FFF78EFB074604E0FFF78AFBE6
:102C1000C01B022899D8686A8007F7D50FE04008E2
:102C200040006862FFF77EFB074605E09DE0FFF786
:102C300079FBC01B022888D8686A8007F7D42078FF
:102C400004274007002860DA00200190E869C000EE
:102C500008D4E969B8060143E961E9690140012046
:102C6000009101906D480168C90511D40168821571
:102C700011430160FFF756FB009005E0FFF752FBA0
:102C80000099401A642870D864480068C005F5D5DA
:102C9000A06801280AD0002801D0052810D0286A91
:102CA000400840002862286AB84301E0286A30439F
:102CB0002862A068002812D0FFF734FB00900AE0D9
:102CC000286A38432862F1E7FFF72CFB0099411A84
:102CD0005348814249D8286A8007F5D50DE0FFF7AF
:102CE00021FB009006E0FFF71DFB0099411A4C48BC
:102CF00081423AD8286A8007F5D40198002804D088
:102D0000E969012000078143E9612078C00635D5D3
:102D1000606901280CD0401D686B23D0384368637C
:102D2000686B400840006863FFF7FCFA064622E043
:102D3000686B38436863686B30436863FFF7F2FA87
:102D4000064604E0FFF7EEFA801B02285BD8686BAA
:102D50008007F7D5686BF8218843A169C90008434B
:102D600068630BE0B8436863F4E74CE0FFF7DAFA16
:102D7000801B022847D8686B8007F7D4206A002898
:102D800046D069680907890F022943D00126360613
:102D90000228286805D0B0432860FFF7C3FA04462C
:102DA00033E0B0432860FFF7BDFA074604E0FFF7C1
:102DB000B9FAC01B022826D828688001F7D4E86A2F
:102DC000E16A000900010843E862616AA06A0843F9
:102DD00069683D22120491430843686028683043C3
:102DE0002860FFF79FFA044604E0FFF79BFA001BF8
:102DF000022808D828688001F7D509E0FFF792FA81
:102E0000001B022801D90320FEBD28688001F5D4EB
:102E10000020FEBD0120FEBD0010024000700040F9
:102E200088130000F8B5040007D000262546403579
:102E3000A662687F002802D005E00120F8BD2E7749
:102E4000204600F04BF802236B772068016840228F
:102E5000914301600721E0680902884201D90022FC
:102E600001E0012212030F273F02B84202D088423C
:102E700000D0A662276B002F05D1884201D92363B9
:102E800001E001202063A16860686369084321694B
:102E9000194308430123A1695B0219400843E16912
:102EA0000843216A0843A16A084321680860616BEE
:102EB000606AA36908431B0C0427E1683B4019437F
:102EC00008432168104348602068C1697A02914331
:102ED000C1612666012068770020F8BD00B5006852
:102EE0000D4987B0884215D10C48C26909140A43BC
:102EF000C261C06908400590032040030090022091
:102F00000021019003200291049103906946044836
:102F1000FFF758F907B000BD00380040001002402C
:102F200000040048FFB504460E464068FF212546D0
:102F300000270531403581B0884202D1A0680028C1
:102F40000CD0287F012815D001202877FFF7EAF957
:102F50000090687F01280FD0022789E0042068775D
:102F600004980090324611462046039B00F086F8F4
:102F700005B0F0BD0220FBE7002E78D003980028B2
:102F800075D0042068770020206626640399A98004
:102F90000399E980A063A087E087E06420650720AB
:102FA0000121E2680002090382422268536801D9C4
:102FB0008B4300E00B4353600122A168D20391428E
:102FC00005D121680A6801239B039A430A6021689E
:102FD0000A68520603D40A6840231A430A60E1686B
:102FE000814218D934E020688168C90706D0007B87
:102FF0003070E888401EE880761C0CE004980028B9
:1030000024D0401C07D0FFF78DF901460098091A1B
:10301000049881421AD2E8880028E4D11BE0206895
:103020008168C90706D0C0683080E888401EE88003
:10303000B61C0DE00498002808D0401C08D0FFF70B
:1030400071F90099411A0498814201D303270FE0D6
:10305000E8880028E3D12046009A049902F0EEFFA8
:10306000002801D020202066206E002800D00127F3
:103070000120687700202877384679E7FFB50446B5
:1030800083B00120254640350090287F00270E465A
:1030900001280FD001202877FFF744F90190687FBD
:1030A000616801280DD0CA1FFD3A08D1A168002926
:1030B00005D102E0022007B0F0BD042801D00227AC
:1030C000FAE0002E7CD005980028FBD00698002856
:1030D000F8D0687F042801D005206877002020669A
:1030E000059921640699E9800699A980A663069945
:1030F000E1870699A187E06420650723E1681B0248
:10310000994202D8E888012806D92068426801213E
:1031100009038A43426005E02068416801221203E6
:103120001143416020680168490603D401684022C8
:1031300011430160E1686068994242D9002802D0D9
:10314000E08F012835D121683088C860E08F401EAB
:10315000E087B61C2DE0009800280ED0E08F0028F4
:103160000BD020688168890707D53188C160E08F5E
:10317000401EE0870020B61C0090E88800280ED092
:1031800020688168C9070AD0C06805990880059839
:10319000801C0590E888401EE880012000900C9873
:1031A000401C06D0FFF7BEF80199411A0C988142E5
:1031B0006DD2E08F0028CED1E8880028CBD16EE018
:1031C00079E0002802D0E08F012862D1E08F012849
:1031D00007D921683088C860E08F801EE087B61C60
:1031E00057E0216830780873E08F401EE087761C36
:1031F0004FE00098002818D0E08F002815D02068F4
:103200008168890711D5E18F012906D93188C1600C
:10321000E08F801EE087B61C05E031780173E08FF7
:10322000401EE087761C00200090E888002824D00B
:1032300020688168C90720D0E988012912D9C068AF
:10324000059908800598801C0590E888801EE88014
:10325000E88801280FD82068416801221203114331
:10326000416008E0017B059801700598401C0590BD
:10327000E888401EE880012000900C98401C08D08F
:10328000FFF750F80199401A0C99884201D303279F
:1032900012E0E08F0028ACD1E8880028A9D12046B0
:1032A000019A0C9902F006FF002801D02020206628
:1032B000206E002800D001270120687700202877A1
:1032C0003846F8E6042204490428086902D09043ED
:1032D000086170471043FBE700E000E07047000022
:1032E000094910B5401E884201D9012010BD074C84
:1032F00060610321081F00F075FF0020A061072016
:103300002061002010BD0000FFFFFF0000E000E092
:1033100010B5FFF7E3FF10BD70B5034620331A7FE9
:10332000012A27D001241C7702225A770326CA6873
:103330003602B2438E6800253243A602B2434E687D
:1033400000683243E602B2430E6832432603B243BA
:103350000E6932436603B2434E6989693243A6035C
:10336000B2430A43E603B2430A4342645C771D77E3
:10337000002070BD022070BD70B502462032137F60
:10338000012B1BD00123137702245477046865684E
:103390007026B5436560046865680E6835436560EE
:1033A0000468A5688026B543A560006884684968FC
:1033B0000C43846053770020107770BD022070BDED
:1033C00070B5040005D025462035687F002802D05E
:1033D00006E0012070BD00202877204600F00AF8A2
:1033E00002206877211D206803F024F80120687707
:1033F000002070BD08B50A4A01680A48914203D10D
:1034000082690121490405E0074A914207D1826996
:10341000012189040A43826180690840009008BD47
:1034200000440140001002400048014010B5114C1A
:10343000036800210222104886B0A34206D101236E
:103440000291009304930192039104E00B4CA34278
:1034500006D19B1508E06946FEF7B4FE06B010BD24
:10346000074CA342FAD15B1502910192009304929A
:103470000391F0E7000400400004004800440140CC
:1034800000480140F8B5064604462036307F0D4618
:1034900001280DD001203077022070770427002A00
:1034A00008D0042A16D0082A2AD00C2A4DD137E099
:1034B0000220F8BD206803F00DF820688169082219
:1034C0001143816120688169B94381612068816904
:1034D0002A6912E0206803F041F82068826901211E
:1034E000C9020A43826120688169012292029143E4
:1034F0008161206881692A6912021143816124E097
:10350000206803F06BF82068C26908210A43C26191
:103510002068C169B943C1612068C1692A6912E0A4
:10352000206803F09DF82068C1690122D20211438E
:10353000C1612068C269012189028A43C261206891
:10354000C1692A6912021143C1610120707700200C
:103550003077F8BD70B5040005D025462035687F6A
:10356000002802D006E0012070BD00202877204608
:1035700000F00AF802206877211D206802F05AFF47
:1035800001206877002070BD08B5006805498842B1
:1035900007D10548C26902210A43C261C0690840D7
:1035A000009008BD000400400010024010B5044621
:1035B0000068012202F082FF0C482168814208D095
:1035C0000B48814205D00B48814202D00A48814213
:1035D00004D1486C0122D20310434864206801687A
:1035E000012211430160002010BD0000002C0140A9
:1035F000004001400044014000480140704701463E
:103600006031487A897A084370470000F8B503684A
:103610000446D96918680E07360F0225002E24D1FA
:103620008A0622D5820620D5002280214A48FEF74C
:1036300072FE4A49264620684036884205D1808C71
:10364000317F0840C0B206F0E3F84549206888425F
:103650000AD144480168294301602068808C317F89
:103660000840C0B206F0D4F8F8BD9A68002E63D0C6
:10367000D607F60FFF272137074037435CD0CF0727
:1036800006D0C70504D501271F62E36E3B43E366FE
:103690008F070423002F06DAD70704D027683D627E
:1036A000E76E1F43E7664F0706D5D20704D02268AE
:1036B0001362E26E2A43E2660A0709D5202202401D
:1036C000324305D0236808221A62E36E1343E3668F
:1036D000E26E002AC8D0890604D5800602D52046AD
:1036E00003F03EF9E06E000703D4206880684006CE
:1036F0001CD5204603F018F920688168490611D5C9
:103700008168402291438160606E00280AD016498A
:103710004163606EFEF732FD0028A5D0606E416BFC
:103720008847F8BD2046FFF769FFF8BD2046FFF740
:1037300065FF0020E066F8BD0A0605D5020603D540
:10374000204603F0E3F9F8BD4906FCD54006FAD55A
:10375000204603F0F8F8F8BD0004004800380140A6
:1037600000440040040000201569000870B5040002
:1037700005D025466035687A002802D006E0012091
:1037800070BD00202872204600F026F824206872C0
:1037900020680168490849000160204603F01EF9CD
:1037A0000128EDD0606A002802D0204603F044F8DA
:1037B000206841680122D2029143416020688168FB
:1037C0000822914381602068016801221143016051
:1037D000204603F096F870BD70B505681F4E0920AD
:1037E0001F49022401220323C00686B0B54216D128
:1037F0008E6995032E438E61896902922940059155
:10380000590200910194039304926946FEF7DAFC91
:10381000002211461B20FEF7FBFF1B201AE0114E71
:10382000B54219D1CE6901256D042E43CE61C96917
:103830000292294005910321890300910194039389
:1038400004926946FEF7BEFC002211461C20FEF7DA
:10385000DFFF1C20FEF7D2FF06B070BD003801402C
:10386000001002400044004070B5034660339C7A6B
:10387000202C39D100290BD0002A09D001258468D9
:103880002D03AC4206D10669002E03D1CE0701D02C
:10389000012070BD1E7A012E26D001261E724165C0
:1038A000014640310A834A83FF22AC4204D10469B5
:1038B000002C07D10D4A05E0002C04D10469002C2E
:1038C00000D07F228A830021C16622229A72197257
:1038D00001688A6832438A6000680168FF222132E9
:1038E00011430160002070BD022070BDFF01000087
:1038F000704730B5034660335C7A202C23D1002911
:103900000BD0002A09D0012584682D03AC4206D1D2
:103910000469002C03D1CC0701D0012030BD1C7AF2
:10392000012C10D0C164014640310A824A82002134
:10393000C16621225A7219720068016880221143FF
:103940000160002030BD022030BD7047FEE70168F5
:103950008A69D243920701D400228A620068816991
:10396000C943C90703D081690122114381617047AE
:10397000F7B5044600680E468069C043C0062CD4E3
:1039800020272546403520688069C04380060FD532
:10399000701CF8D0002E05D0FEF7C4FC0299401A26
:1039A000B042F0D96F700020A87028700320FEBDCF
:1039B00021681020C8612068C7612046FFF7C7FF53
:1039C00020684168064A11404160042060646F70BD
:1039D0000020A87028700120FEBD0020FEBD000060
:1039E00000E800FEF8B504460120164640031D46D7
:1039F000DAB20090079F0023204600F05DF83A46B7
:103A00002046069900F0B5F8002803D0606C042821
:103A10001BD018E02846F5B2012809D02168300AE9
:103A200088623A462046069900F0A3F80028EDD1B6
:103A3000206885620097002240212046069B00F006
:103A40004DF8002800D00320F8BD0120F8BDF8B5DE
:103A500004460120164640031D46DAB2C302009018
:103A6000079F204600F028F83A462046069900F0C5
:103A700080F8002803D0606C04281BD018E028468A
:103A8000F5B2012809D02168300A88623A462046FA
:103A9000069900F06EF80028EDD120688562009745
:103AA000002280212046069B00F018F8002800D054
:103AB0000320F8BD0120F8BD70B50568049C686856
:103AC0008905890D1204044E1143194330402143E6
:103AD0000143696070BD0000009800FCF8B51C4609
:103AE00017460E46054611E0601C0FD0002C05D08D
:103AF000FEF718FC0699401AA04207D9202040354D
:103B000068700020A87028700320F8BD28688169BB
:103B10003046884304D00020B842E5D00020F8BDEC
:103B20000120F9E770B516460D4604461AE0324604
:103B300029462046FFF71CFF002801D0012070BD58
:103B4000002D04D0FEF7EEFB801BA8420AD9616C61
:103B5000202001436164403460700020A070207018
:103B6000032070BD20688069C0438006DFD4002038
:103B700070BD70B516460D4604461CE03246294617
:103B80002046FFF7F5FE002801D0012070BD681C1B
:103B900011D0002D04D0FEF7C5FB801BA8420AD926
:103BA000616C202001436164403460700020A0708B
:103BB0002070032070BD20688069C0438007DDD479
:103BC000002070BD002102E0491CC9B2401C0278EF
:103BD000002AF9D108467047002201E00270401C1B
:103BE000491EFBD2704710B5002305E00C78047025
:103BF000E318401CDBB2491C521EF7D2184610BD18
:103C000001E00170401C521EFBD2704770B5154C8C
:103C10000225E078030004F0BAFD051D041E1720FC
:103C20001D00A078411EA1700BD31022217860687E
:103C300008F004FE6068103060602078103020705A
:103C400000E0E570052109E062780749002008F0EE
:103C5000BDF9E57070BD002100E00A210C2002F0E2
:103C6000CBFD70BD0C030020DC0E002010B5084B0E
:103C70001A705860597008099870090701D0401CE3
:103C800098700120D87001460C2002F0B5FD10BDDF
:103C90000C030020FEB545494548002412C001250B
:103CA0000426011D046070C104614461C461446262
:103CB0008462FF218561C231C46201620838FEF767
:103CC0000FF9002803D04A213AA004F033FD012067
:103CD0000003009401900724694635480294FEF7DA
:103CE00009F8002803D0542132A004F023FD6946CE
:103CF0002F480095FDF7FEFF002803D05C212DA082
:103D000004F018FD0220009069462948FDF7F2FFF3
:103D1000002803D0642127A004F00CFD03200090AC
:103D200069462348FDF7E6FF002803D06C2121A057
:103D300004F000FD69461E480096FDF7DBFF0028F1
:103D400003D074211BA004F0F5FC05200090694607
:103D50001748FDF7CFFF002803D07C2115A004F001
:103D6000E9FC0620009069461148FDF7C3FF0028D2
:103D700003D084210FA004F0DDFC69460C480094B8
:103D8000FDF7B8FF002803D08C210AA004F0D2FC74
:103D90000920009069460648FDF7ACFF002803D0D3
:103DA000942104A004F0C6FCFEBD000000240140E4
:103DB000301000202E2E2F5372632F6164632E6308
:103DC00000000000F0B5294887B042690121C9040C
:103DD0000A43426142690A400592426989100A43D6
:103DE000426142690A400592426949000A434261C0
:103DF00040691F4E08400590002231461D48FEF7DD
:103E00008AFA19273F02092000223946C006FEF728
:103E100082FA07246403002221461748FEF77BFA42
:103E200000940024012501950294694612480394E8
:103E3000FEF7C8F9029469460E480096019503946E
:103E4000FEF7C0F9092002946946C0060097019563
:103E50000394FEF7B7F9102000900194029469468C
:103E600003940448FEF7AEF907B0F0BD001002401D
:103E7000E4900000000400480008004810B517480E
:103E8000154901601649416000218160016141616D
:103E900081610122C161C2600162FEF793FA0028CC
:103EA00003D04B210FA004F045FC012109030B486E
:103EB000FEF73EFA002803D052210AA004F03AFC93
:103EC00001210648FEF759FA002803D0592105A020
:103ED00004F030FC10BD0000005800407C100020B1
:103EE000FFD9C0002E2E2F5372632F6932632E63C9
:103EF0000000000010B5134811490160FF21053191
:103F0000416001218902816007210902C16000210D
:103F100001220161520282614161016230224162EB
:103F2000C261816207220163C2624163FEF77AFFC8
:103F3000002803D04D2104A004F0FCFB10BD0000BC
:103F400000380040200300202E2E2F5372632F7361
:103F500070692E630000000010B527488EB0254917
:103F6000016000241821846041607D210461090101
:103F70004461C16080218161FFF722FA002803D0EB
:103F800073211EA004F0D6FB1B48FFF7E3FA0028BC
:103F900003D0782119A004F0CDFB702000900220FE
:103FA00001940290039404940594002269460694B7
:103FB0001148FFF767FA002803D084210FA004F00E
:103FC000B9FB01200794400308940C9009940A94CB
:103FD0000B9407A90D940848FFF79EF9002803D019
:103FE000902106A004F0A6FB0348FFF71FFA0EB0CD
:103FF00010BD000000440140B00F00202E2E2F53B2
:1040000072632F74696D2E630000000010B527489D
:104010008EB02549016000241821846041607D2113
:10402000046109014461C16080218161FFF7C8F921
:10403000002803D0A3211EA004F07CFB1B48FFF73F
:1040400089FA002803D0A82119A004F073FB70207E
:10405000009002200194029003940494059400229D
:10406000694606941148FFF70DFA002803D0B421E1
:104070000FA004F05FFB01200794400308940C900C
:1040800009940A940B9407A90D940848FFF744F982
:10409000002803D0C02106A004F04CFB0348FFF722
:1040A000C5F90EB010BD000000480140F00F00201F
:1040B0002E2E2F5372632F74696D2E630000000043
:1040C00030B51C4889B01A49016000241821846069
:1040D00041607D2109010461C16080218161FFF798
:1040E00039FA002803D04E2113A004F023FB6025E9
:1040F00007A9104807950894FFF73EF9002803D058
:1041000055210DA004F016FB019402940822694683
:10411000084800950494FFF7B5F9002803D05E2104
:1041200005A004F007FB0348FFF780F909B030BD94
:1041300000040040700F00202E2E2F5372632F7446
:10414000696D2E630000000010B50D480B49016039
:10415000E1214902416000218160C160016181610A
:10416000C1610C22016242614162FFF7FFFA00283F
:1041700003D0482103A004F0DDFA10BD003801404F
:10418000E81000202E2E2F5372632F757361727406
:104190002E63000010B50D480B490160E121490272
:1041A000416000218160C16001618161C1610C22B7
:1041B000016242614162FFF7D9FA002803D05D2114
:1041C00003A004F0B7FA10BD0044004058110020CD
:1041D0002E2E2F5372632F75736172742E6300003D
:1041E000704700008307FF22DB0E9A408907090E03
:1041F000994000280BDA0007000F083883080848A8
:104200009B001818C36993430B43C361704783082D
:1042100004489B001B1818689043084318607047B7
:1042200000ED00E000E400E070B50B4C0125A57046
:104230000020A08020616081A0811921072002F068
:10424000DBFAE5701E210A2002F0D6FA03490B20A2
:1042500002F0D2FA70BD000094010020B80B0000FB
:1042600070470000F8B53D48002600783C4D002816
:1042700004D0012808D107F0D3F905E039480671C8
:10428000394806702E706E70354C02272C34206829
:104290003903B84320603548FEF738F8012804D1C7
:1042A0002068C10701D0B84329E0012149032F4804
:1042B000FEF72CF8002802D12068C10707D00121A1
:1042C00049032A48FEF722F800280AD00EE001210F
:1042D00008430A462060C9032548FEF71CF82068F9
:1042E000E1E72068C10701D0384308E0012100223E
:1042F000C9031F48FEF70FF820684008400001215D
:10430000206049031948FEF701F80427012811D15C
:104310002068C1070ED040070CD5154E7D032068DC
:10432000002240084000B843206029463046FDF78F
:10433000F2FFF4E7206881070AD52989FF22491C8A
:1043400089B291322981914203D33843206000E041
:104350002E810A21072002F04FFAF8BD3E0100200D
:10436000940100203C0B0020FB00002000080048C6
:1043700000040048F0B5FB480A2382780146042077
:10438000085E89B043430393F74BF84FDB69009312
:10439000C97806913978F64C019121680591490850
:1043A00049000491F04901268979F24D491CC9B2AE
:1043B0000791130004F0EBF9074605487EFDFCFB6E
:1043C0004600E84F0398FCF77DF9E74D0099FCF7AC
:1043D00075FA0FD12068C10719D10A21696169797D
:1043E000491CC9B26971022911D3304320600020F1
:1043F00068710CE00620385E0A214843FCF762F938
:10440000E969FCF75BFA02D10920C0436861686979
:10441000FCF758F9E969FBF7CCFEE861FCF79FF976
:1044200000B202F053F941E000200146E8610220A9
:1044300002F0E2F9D048042102688A430260CF48C2
:104440000A21817009B0F0BDC64F0398FCF73AF914
:10445000C54D0099FCF732FA0ED12068C1070BD187
:104460000A2169616979491CC9B26971022903D3BA
:1044700030432060002068710620385E0A214843DE
:10448000FCF720F9E969FCF719FA01D0686902E044
:104490000920C0436861FCF715F9E969FBF789FE5B
:1044A000E861FCF75CF900B202F038F92078C00747
:1044B0007CD0B9E7AB490A238988069A594309B2E7
:1044C000A84B03910621595E130004F060F909908E
:1044D00006244596D1F090EE9000E8802981FCF703
:1044E000F1F8A749FBF7FBFEA6490860A149A648D9
:1044F000019AFFF778FB00223978A348FFF7B6FB53
:1045000008210620695E285E0090019195489FA1D0
:10451000C37882781CE06881A981FCF7D3F89849B8
:10452000FBF7DDFE9E49086092499748019AFFF724
:104530005AFB002239789448FFF798FB0C210A2097
:10454000695E285E009087480191C378827895A1C2
:10455000994804F0F1F840E0FF222D32C83890422B
:104560002ED80846C83890422AD80A2251430398C8
:104570000AB2E8812A820A210092FBF7C9FDFCF702
:10458000A1F88E49086064210098FBF7C1FDFCF793
:1045900099F88B49086077497B48019AFFF723FB1C
:1045A000002239787848FFF761FB03E05FE3F2E22D
:1045B0005EE38CE110230E22EB5EAA5E81A109E08E
:1045C000012184A0FCF746FE664806230422C35E50
:1045D000825E86A1784804F0AFF87748FFF7F2FAD8
:1045E0000146754801F02AF820683043206062488F
:1045F000042102688A43026024E76882A9824B2171
:10460000C900411AFF202D30814203D87C49688AB5
:10461000088008E0C3208000794968820880012171
:1046200078A0FCF717FE1421695E4B20C000091A20
:104630004010814203D87A49A88A088008E0C32044
:1046400080007749A8820880012176A0FCF702FE4D
:104650003A7848494C48FFF7C6FA002239784A4868
:10466000FFF704FB14231222EB5EAA5E73A1B1E7ED
:10467000E88229833F494448019AFFF7B4FA0022AF
:1046800039784148FFF7F2FA1620285EFCF72CF83B
:104690006E4A6F4BFBF720FFFCF79AF8C2B26D48E9
:1046A00018230270EB5E6CA194E734E0FFE76883A7
:1046B000A98330493448019AFFF795FA00223978E6
:1046C0003148FFF7D3FA1A27EF5FFF213846C83881
:1046D0005F31884215D83846FBF7F4FF02901C2062
:1046E000285E0546FBF7EEFF0299FBF7F8FD5E49F1
:1046F0000860FCF78BF80B4602465CA10097019519
:1047000026E701215EA0FCF7A5FD1A231C22EB5E23
:10471000AA5E61A15EE70399A980FF212D31963839
:1047200088421ED813491848019AFFF75CFA002204
:1047300039781548FFF79AFA0420285EFBF7C2FF84
:104740005A49FBF7CCFD5A490860FCF75FF802466E
:10475000044806250423455FC35E009301950B467C
:10476000A8E0A9E08E0200208C00002008030020B1
:10477000300000207E0E0020340000203C0B002082
:1047800000007A44440000209C0E00204557413A26
:1047900025642C25642C25642C25642C450A0000F6
:1047A0004800002045574F3A25642C25642C256489
:1047B0002C25642C450A0000A0030020480100209D
:1047C0004C0100204557504545503A25642C25643E
:1047D0002C450A00436865636B2052616E6765284B
:1047E0003230302D353030290000000045575065FB
:1047F000654572723A25642C25642C450A00000038
:1048000044010020436865636B2052616E67655FF9
:10481000416972283630302D3930302900000000CF
:1048200046010020436865636B2052616E67655FD7
:104830004F32283630302D39303029004557443238
:104840003A25642C25642C450A000000FCA9F1D20D
:104850004D62503F1D010020455744333A25642CDA
:1048600025642C450A0000001801002045575674A5
:10487000653A25662C25642C25642C450A00000029
:10488000436865636B2052616E6765283230302D56
:10489000353530290000000045575674655F457274
:1048A000723A25642C25642C450A00000000C84299
:1048B00040000020F1A14BE60121F6A0FCF7CAFC64
:1048C000FA4806230422C35E825EF9A182E60698B6
:1048D000030003F05CFF0AF0062E5F91B9F1EEF0E1
:1048E000EDF0F9490020019A07F070FB3A78F6499B
:1048F000F648FFF778F9F6480078400713D5EB4FF4
:10490000F4483978FFF768F9F2480821017004216A
:104910008170C67009214170E98881802989C18030
:10492000397800F0A5FE08230622EB5EAA5EEAA114
:10493000EAE0E5490020019A07F048FB3A78E249AD
:10494000E248FFF750F9E2480078400714D5D74F06
:10495000E0483978FFF740F9DE480821017004216A
:1049600081700221C1700921417069898180A98902
:10497000C180397800F07CFE0C230A22EB5EAA5E2F
:10498000D9A1C1E0DC48FFF71DF90146DA4800F083
:1049900055FEF1E0CC490020019A07F017FB3A7868
:1049A000C949CA48FFF71FF91620285EFBF79CFE8D
:1049B000D24AD34BFBF790FDFBF70AFFC5B2D148B3
:1049C0000570D1480068FBF721FF0090CF480191A6
:1049D0000068FBF71BFF0B46CD49CE4ACE4F098836
:1049E00012883F8803920491024602970595CBA155
:1049F000C14803F0A1FEC5E7B3490020019A07F0C2
:104A0000E5FA3A78B049B148FFF7EDF8B0480078D8
:104A1000400713D5A54FAF483978FFF7DDF8AD480B
:104A20000821017004218170C17009214170698AD7
:104A30008180A98AC180397800F01AFE14231222DD
:104A4000EB5EAA5EC2A15FE09F490020019A07F0D9
:104A5000BDFA3A789C499D48FFF7C5F89C48007814
:104A6000400714D5914F9B483978FFF7B5F899481E
:104A700008210170042181700521C1700921417054
:104A8000E98A8180298BC180397800F0B4FD162035
:104A9000285EFBF729FE994A994BFBF71DFDFBF7B2
:104AA00097FEC2B2974818230270EB5EACA12BE0D0
:104AB0006BE02DE000E062E083490020019A07F0FE
:104AC00085FA3A7880498148FFF78DF88048007868
:104AD000400714D5754F7F483978FFF77DF87D483A
:104AE00008210170042181700621C17009214170E3
:104AF000698B8180A98BC180397800F0B9FD1C23B6
:104B00001A22EB5EAA5E9AA17B4803F015FE39E7F4
:104B10006F480068410701D4000729D5794800781B
:104B2000002803D07D21C900484300E09448E88272
:104B300065490020019A07F049FA3A7862496348CA
:104B4000FFF751F88F4D1E226049A81CFFF74BF864
:104B50005F480068010704D52978284600F04BFD1E
:104B60000AE0400708D52978864800F081FD03E077
:104B7000002185A0FCF76EFB206830432060884848
:104B8000042102688A430260AFE20598F5E702203B
:104B900001F032FE56E483488088FBF7B9FD824A73
:104BA000824BFBF799FC824A824BFBF787FCFBF7B1
:104BB00069FE0290069801284CD17A48008800903E
:104BC0007D480078C01E030003F0E1FD070557563D
:104BD0004555545344000498206078480B21784D83
:104BE000817028680226B0432860764F0098B8424A
:104BF0000AD211217448FCF7E9F8012804D07F217A
:104C00000298C90588421EDC0098B84201D36FA201
:104C10000BE011216C48FCF7D9F8012811D07F2155
:104C20000298C905884208DC6EA272A1324803F0DE
:104C300083FD01213048FCF70DFB286830432860D4
:104C4000F7E06DA2F1E7002170A0FCF703FB06205E
:104C50005949087012E2FF210098C331884204D3F9
:104C60000598800602D40421DBE0DCE0D8E009E20C
:104C70000AE2A5E1C2E182E116E1DEE04557466CB9
:104C800077466374723A25662C25642C25642C457E
:104C90000A000000436865636B5F52616E676528B8
:104CA0003135302D34353029000000008E020020CF
:104CB0004557466C77466374724572723A25642C88
:104CC00025642C450A0000009C0E00207E0E00206A
:104CD00004000020000300204552413A25642C25A1
:104CE000642C450A0000000045524F323A25642CDE
:104CF00025642C450A000000A0030020FCA9F1D285
:104D00004D62503F1D01002048000020440000205B
:104D10004601002044010020420100204545503A50
:104D20002041502D25332E31662C4F502D25332E0A
:104D300031662C502D25642C4150432D25642C4F79
:104D400050432D25642C4252442D25642C450A00E5
:104D50004552434E543A25642C25642C450A0000E4
:104D6000455244333A25642C25642C450A00000042
:104D700045525674653A25642C25642C450A00007A
:104D800010270000200D00200A4545505F4645547D
:104D90004348204552525F464C4720464C534500FD
:104DA00034000020740500202F6EA301BC05623F73
:104DB000F0A7C64B370900406C0000203C0B0020D8
:104DC00038000020FF0F0000840000204F78796732
:104DD000656E2053656E736F722052656D6F7665D8
:104DE00064000000436865636B204F322053757088
:104DF000706C790025730A00436865636B20416914
:104E00007220537570706C79000000000A4F325F99
:104E1000323120736E722063686B2E2E2E2E0000AE
:104E20000521FD4801707F210298C90588427DDD7A
:104E300024E1F9480821017020E17F210298C90589
:104E4000884273DDF5A1F948009A03F075FC012151
:104E5000F648FCF7FFF9F64915200870F649F548C1
:104E60000860F648FF228189F532491C89B28181A8
:104E70009142DDD921682022114321600146183179
:104E8000009A0A80E44B0621197000218181ECA16F
:104E9000E648009B03F050FCE448FEF793FE014611
:104EA000E24800F0CBFBE9E07F200299C005814297
:104EB00055DDE8A1DD48009A03F03EFC0121DB4806
:104EC000FCF7C8F9DA4964200870DB49D948DB4DA2
:104ED0000860A889FF21401C80B2F531A881884272
:104EE00018D9206840210843206028461830009ACD
:104EF00042800020E870C84807210170D9A1CB4842
:104F0000009B03F019FCC948FEF75CFE0146C74848
:104F100000F094FB2889FF21401C80B29131288148
:104F2000884285D9C5481830008800E017E0410064
:104F30004118009881420FD9CF482A21818003214E
:104F4000C180082100F094FBCC4802220168114383
:104F50000160B14808210170002028818EE0C84A14
:104F6000B2481146103103F0E7FB0121AF48FCF7CE
:104F700071F9C248022201681143016059E7AF4844
:104F8000C2A1183002882A804388BE486B80028004
:104F9000BD480380A54803F0CFFBA448FEF712FEEE
:104FA0000146A24800F04AFB3A78BC49BC48FEF7EB
:104FB0001AFE00223978BA48FEF758FE092047E663
:104FC0009E4907988871032858D900208871B449F0
:104FD000019A06F0FBFF3A78B149B048FEF703FEAC
:104FE0006B882A88AFA1914803F0A6FB8F48FEF793
:104FF000E9FD01468D4800F021FB1AE700F070FB47
:105000009D4827219D4D818029780827890701D552
:10501000032100E00421C1803946974800F028FBB5
:10502000A7491520487100228A71814908701046ED
:1050300001F074FB3946904800F0DDFA7F4900200A
:105040008881226860239A432260734A0323137085
:1050500008704870C870088129680220814329605F
:1050600097480A218170002196A0FCF7F3F80021EF
:10507000022001F0C1FB2068304320602078C00787
:1050800000D087E5642182E59248017892480B00C0
:1050900003F07DFB0705C0BFBFBE2CBD2B000498ED
:1050A0002060664800254581C57145620221856200
:1050B0000171834F0B20B87011218848FBF786FEE1
:1050C000012801D0052045E111218448FBF77EFE2F
:1050D00001280AD1012182A0FCF7BCF87D480570A7
:1050E0002068304320600A20B870FCE1534D142141
:1050F0006889FAF7F7FF002958D111217748FBF7A3
:1051000065FE012852D028797A4F022802D0032860
:1051100021D046E0A878401CC0B2A870022840D137
:10512000AE70EE797448761CEE710168686AFBF720
:1051300040F868623846FBF729F80146A86AFBF791
:1051400038F8A862F00704D06CA1384803F0F4FAEC
:1051500027E06FA1F9E7A878401CC0B2A870022828
:105160001FD1AE70E879401CE87163480168686A35
:10517000FBF71FF868623846FBF708F80146A86A93
:10518000FBF717F8A8625B480830FAF7FFFF2949D8
:10519000FBF768F8FBF7CAFA02B260A1234803F0F4
:1051A000CBFA01212148FCF755F812E011214B48B8
:1051B000FBF70CFE01280CD1012149A0FCF74AF8AD
:1051C0004449002008702068304320603C480A2190
:1051D00081706889FF21401C80B22D31688188422E
:1051E00019D300266E81E879FBF777FA0146686AE1
:1051F000FBF775F840004008FBF708FB05F02CF9B9
:10520000FBF740FB3C4907460860E8798CE01AE16F
:10521000B9E0B2E0A1E066E16C0000204F78796768
:10522000656E3231202564200A000000A0030020B2
:105230001C01002000002041100100208C000020F3
:105240004F323120666C74642025642C25642C4513
:105250000A0000004F787967656E31303020256490
:10526000200A00004F31303020666C7464202564C1
:105270002C25642C450A00008E02002038000020F6
:10528000E44D0008DE000020E00000204F326461A1
:1052900074613A25642C25642C450A007E0E00209A
:1052A0009C0E00207265642066726F6D20656570CB
:1052B00020646174613A25642C25642C450A000041
:1052C0003C0B00200A546D722053746F7065642E7D
:1052D0002E2E00006D0000200000484284000020B7
:1052E000436865636B2041697220537570706C79F7
:1052F0000A0000003B0C00204C000020436865635E
:105300006B696E672E2E2E2E2E2E2E0A00000000A8
:10531000436865636B696E672E2E0A002020253076
:105320003364200A00000000FBF7D7F90146A86AA1
:10533000FAF7D5FF6F49086029796F488A008750CE
:10534000491CC8B22871EE716E62AE70AE6204285C
:1053500000D3042069490870C5E0049921606849B8
:105360000B228A70674908606749152008706349F5
:1053700005200870002165A0B3E062490860624919
:10538000152008709EE65C486549C0680646FAF735
:1053900069FF6449086004905648634900680860E2
:1053A00031460590FAF79BFF604906460860604960
:1053B00040186049884236D259493046FAF752FFC0
:1053C000FBF7B4F9A8805C488022016811430160B2
:1053D0003046FBF71BFA05460E460598FBF716FA12
:1053E000009007910498FBF711FA0B46019902957A
:1053F0000491079902460191039650A1574803F082
:105400009BF95648FEF7DEFB0146544800F016F9BA
:105410003A7853495348FEF7E6FB00223978514861
:10542000FEF724FC0DE03046FBF7F0F90191009007
:105430004DA252A1494803F07FF900214748FBF7EC
:1054400009FF062086E74F490798887103284AD943
:10545000002088714349019A06F0B8FD3A78414925
:105460003F48FEF7C0FB3448007800061BD50422F5
:10547000AA5E3B7844A1394803F05EF93748FEF74D
:10548000A1FB0146354800F0D9F82B48802201687D
:10549000914301604348282181800321C180082174
:1054A00000F0E6F803E001213FA0FBF7D3FE05F092
:1054B000E5FF0420285E6421FAF72AFEFBF702F9D3
:1054C0003E4908600D490020087020680A213043D9
:1054D00020600B4881700021022001F08DF900212D
:1054E00037A0FBF7B7FE2078C00700D0C9E50A2136
:1054F000C9E5000068000020F00800206D000020D1
:105500003C0B0020100100201C010020354C504DA8
:105510002043616C6962726174696F6E0A000000F9
:105520000000C842E4000020E8000020EC00002059
:10553000FFFFDFBEFFFF27013400002064617461BC
:105540003A25332E31662C25332E31662C25332E09
:1055500031662C25642C450A00000000A0030020C1
:105560007E0E00209C0E0020454550524F4D206E6F
:105570006F7420577269746E000000002573202537
:1055800066200A008C000020467264207265642048
:1055900065657020646174613A25642C25642C452E
:1055A0000A0000008E020020466C6F772043616C79
:1055B0006962204661696C6564000000400000205B
:1055C0000A466C7720546D722053746F7065642E98
:1055D0002E2E000010B506490222086890434008AC
:1055E00040000860FA21104601F006F910BD0000E5
:1055F000AC000020704730B595B00C4605465422EB
:1056000000216846FEF7FCFA542C15D202216846A8
:105610000170294622466D46401CFEF7E4FA014619
:10562000641CE0B22954401CC0B203212954401C20
:10563000C1B2684600F002F815B030BD70B50C4636
:105640000546542900D9542401F0C4FA54220021FB
:105650000648FEF7D5FA224629460448FEF7C3FA63
:105660002146024801F0DEF870BD000088040020E9
:1056700030B595B00C460546542200216846FEF729
:10568000BFFA542C15D202216846017029462246E1
:105690006D46401CFEF7A7FA0146641CE0B229548F
:1056A000401CC0B203212954401CC1B2684600F01E
:1056B00003F815B030BD000070B50C4605465429FE
:1056C00000D9542401F07CFA224629460348FEF70B
:1056D0008AFA2146014801F069FA70BDF4030020FE
:1056E00070B51248068812480088311A1148FAF736
:1056F0000FFDFAF7E7FF04460F4D3046FAF7EDFFCE
:105700002146FAF7AFFDFBF781F80C4A0C4BFAF78C
:10571000E3FE00220B4BFAF7D7FEFBF7B3F8A864C1
:1057200009492046FAF7DBFDE86470BDE00000207F
:10573000DE000020E0E60B000C0000202D431CEBF7
:10574000E2361A3F00C0584000401C4670B5114D6B
:10575000012204212846FCF7DEFD01221403214624
:105760002846FCF7D8FD09250122ED06110228463E
:10577000FCF7D1FD0122D1022846FCF7CCFD012225
:1057800021462846FCF7C7FD012251030248FCF7D9
:10579000C2FD70BD000400480008004870B5164CFA
:1057A0000125A07C002805D0012805D002280CD0B6
:1057B00005281CD0A57415E00020A073FBF7F6FAAD
:1057C00000280FD10220A0740CE0A07B092809D387
:1057D000FBF7F4FA0520A07407480422243001687E
:1057E000914301603221012001F006F870BD04F000
:1057F00067F804F003F9DDE70C00002070B5264DD2
:10580000A8780D2847D00A2845D00B2843D0102867
:1058100041D00C283FD02149214ECC1C062801D173
:10582000204800788870607C217C00020843FAF7E9
:1058300054FF3168FBF742F8607C217C07D20002FC
:105840000843FAF74AFF3168FAF708FD06E000025C
:105850000843FAF742FF3168FAF7FCFC0121890797
:10586000884201DCE87903E0607C217C0002084387
:105870002074000A607425210848FFF7F9FE0A48E1
:105880000078800707D509480078400603D4252111
:105890000248FFF7B0FE70BD3C0B0020620C0020F8
:1058A000200100204001002004000020F40000201E
:1058B000F8B5EC4E00257574EC48F27BC08800907A
:1058C00030460327E849407AE94C130002F05FFFB5
:1058D0000738F0EF73EEEDEC8900030002F057FF9C
:1058E000060407464E4A540D0022042102E000221D
:1058F00001210903DF48FCF70EFD09200146401E87
:10590000C0B20029FAD1D74D707C5035D74A29183A
:105910008000663A801800F085FC707C295C0029C4
:1059200037D00121727A81408A437272401C7074B0
:10593000FFF70CFF09200146401EC0B20029FAD132
:10594000707C0528C9D3717A1F2928D02320A07024
:105950002171090A61710221E170222821D0002100
:10596000F17222281FD023281FD01BE10022012121
:10597000C90206E000220121090302E00022FF2102
:1059800001310920C006B6E7002201214903BA48C7
:10599000B1E70121727A814011437172C6E722207A
:1059A000D5E70121DCE7B5A200E0B7A2BAA1BB4868
:1059B00002F0C2FEF6E0B27A521CD2B2B272322AC1
:1059C0000FD33278130002F0E2FE060C04080D112A
:1059D0007D0C0120F073022092E00420F0733770F8
:1059E000B572F8BD0520F073042089E00620F0733D
:1059F00005203070B5724A790B791102009819436D
:105A0000884201D9012000E00220A54CA649E0709F
:105A1000A44800694118A2291BD8FAF779FEA34AC5
:105A2000A34BFAF759FDA34AA34BFAF747FDFAF740
:105A300029FF7064FAF793FEC0B20521FAF752FB12
:105A4000401C81004018C0B2A070642835D9642081
:105A500028E0954927314118262908D8FAF758FE39
:105A6000964A974BFAF738FD964A974B0CE08E49C9
:105A7000623141183A291CD8FAF74AFE934A944BEE
:105A8000FAF72AFD0022934BFAF718FDFAF7FAFE0F
:105A90007064FAF764FEC0B20521FAF723FB401CDC
:105AA00081004018A07008E06AE04EE034E08AE02F
:105AB00028E08949884200D2A57021787848FFF70C
:105AC000D7FDF8BD2921A1702071000A6071E7702F
:105AD00082A271A1714802F02FFE7048FAF74FFBC5
